{
  "address": "0x7C571A1985276203F3E1a5f1eDc7De4145072A85",
  "abi": [
    {
      "anonymous": false,
      "inputs": [
        {
          "indexed": true,
          "internalType": "uint256",
          "name": "workId",
          "type": "uint256"
        },
        {
          "indexed": true,
          "internalType": "address",
          "name": "grantee",
          "type": "address"
        },
        {
          "indexed": true,
          "internalType": "address",
          "name": "granter",
          "type": "address"
        },
        {
          "indexed": false,
          "internalType": "uint64",
          "name": "expiry",
          "type": "uint64"
        }
      ],
      "name": "AccessGranted",
      "type": "event"
    },
    {
      "anonymous": false,
      "inputs": [
        {
          "indexed": true,
          "internalType": "uint256",
          "name": "workId",
          "type": "uint256"
        },
        {
          "indexed": true,
          "internalType": "address",
          "name": "grantee",
          "type": "address"
        },
        {
          "indexed": true,
          "internalType": "address",
          "name": "revoker",
          "type": "address"
        }
      ],
      "name": "AccessRevoked",
      "type": "event"
    },
    {
      "anonymous": false,
      "inputs": [
        {
          "indexed": true,
          "internalType": "uint256",
          "name": "workId",
          "type": "uint256"
        },
        {
          "indexed": true,
          "internalType": "uint256",
          "name": "versionId",
          "type": "uint256"
        },
        {
          "indexed": true,
          "internalType": "uint256",
          "name": "tokenId",
          "type": "uint256"
        }
      ],
      "name": "CopyrightNFTMinted",
      "type": "event"
    },
    {
      "anonymous": false,
      "inputs": [
        {
          "indexed": true,
          "internalType": "uint256",
          "name": "workId",
          "type": "uint256"
        },
        {
          "indexed": true,
          "internalType": "uint256",
          "name": "licenseId",
          "type": "uint256"
        },
        {
          "indexed": false,
          "internalType": "string",
          "name": "terms",
          "type": "string"
        },
        {
          "indexed": false,
          "internalType": "uint256",
          "name": "priceWei",
          "type": "uint256"
        }
      ],
      "name": "LicenseCreated",
      "type": "event"
    },
    {
      "anonymous": false,
      "inputs": [
        {
          "indexed": true,
          "internalType": "uint256",
          "name": "workId",
          "type": "uint256"
        },
        {
          "indexed": true,
          "internalType": "address",
          "name": "licensee",
          "type": "address"
        },
        {
          "indexed": true,
          "internalType": "uint256",
          "name": "licenseId",
          "type": "uint256"
        },
        {
          "indexed": false,
          "internalType": "string",
          "name": "terms",
          "type": "string"
        },
        {
          "indexed": false,
          "internalType": "uint256",
          "name": "amount",
          "type": "uint256"
        }
      ],
      "name": "LicenseIssued",
      "type": "event"
    },
    {
      "anonymous": false,
      "inputs": [
        {
          "indexed": true,
          "internalType": "address",
          "name": "creator",
          "type": "address"
        },
        {
          "indexed": true,
          "internalType": "uint256",
          "name": "workId",
          "type": "uint256"
        },
        {
          "indexed": true,
          "internalType": "uint256",
          "name": "versionId",
          "type": "uint256"
        },
        {
          "indexed": false,
          "internalType": "string",
          "name": "title",
          "type": "string"
        },
        {
          "indexed": false,
          "internalType": "bytes32",
          "name": "hash",
          "type": "bytes32"
        },
        {
          "indexed": false,
          "internalType": "string",
          "name": "metadataURI",
          "type": "string"
        },
        {
          "indexed": false,
          "internalType": "enum ScriptVaultRegistry.Visibility",
          "name": "visibility",
          "type": "uint8"
        },
        {
          "indexed": false,
          "internalType": "uint64",
          "name": "timestamp",
          "type": "uint64"
        }
      ],
      "name": "VersionCreated",
      "type": "event"
    },
    {
      "inputs": [
        {
          "internalType": "uint256",
          "name": "",
          "type": "uint256"
        },
        {
          "internalType": "address",
          "name": "",
          "type": "address"
        }
      ],
      "name": "accessGrants",
      "outputs": [
        {
          "internalType": "bool",
          "name": "granted",
          "type": "bool"
        },
        {
          "internalType": "uint64",
          "name": "expiry",
          "type": "uint64"
        }
      ],
      "stateMutability": "view",
      "type": "function"
    },
    {
      "inputs": [
        {
          "internalType": "uint256",
          "name": "licenseId",
          "type": "uint256"
        }
      ],
      "name": "buyLicense",
      "outputs": [],
      "stateMutability": "payable",
      "type": "function"
    },
    {
      "inputs": [
        {
          "internalType": "uint256",
          "name": "workId",
          "type": "uint256"
        },
        {
          "internalType": "address",
          "name": "grantee",
          "type": "address"
        },
        {
          "internalType": "externalEuint32",
          "name": "scopeExt",
          "type": "bytes32"
        },
        {
          "internalType": "bytes",
          "name": "inputProof",
          "type": "bytes"
        }
      ],
      "name": "downgradeScope",
      "outputs": [],
      "stateMutability": "nonpayable",
      "type": "function"
    },
    {
      "inputs": [
        {
          "internalType": "uint256",
          "name": "workId",
          "type": "uint256"
        },
        {
          "internalType": "address",
          "name": "grantee",
          "type": "address"
        }
      ],
      "name": "getEncryptedScope",
      "outputs": [
        {
          "internalType": "euint32",
          "name": "",
          "type": "bytes32"
        }
      ],
      "stateMutability": "view",
      "type": "function"
    },
    {
      "inputs": [
        {
          "internalType": "uint256",
          "name": "licenseId",
          "type": "uint256"
        }
      ],
      "name": "getLicense",
      "outputs": [
        {
          "components": [
            {
              "internalType": "uint256",
              "name": "workId",
              "type": "uint256"
            },
            {
              "internalType": "address",
              "name": "licensee",
              "type": "address"
            },
            {
              "internalType": "string",
              "name": "terms",
              "type": "string"
            },
            {
              "internalType": "uint256",
              "name": "priceWei",
              "type": "uint256"
            },
            {
              "internalType": "bool",
              "name": "active",
              "type": "bool"
            }
          ],
          "internalType": "struct ScriptVaultRegistry.LicenseTerms",
          "name": "",
          "type": "tuple"
        }
      ],
      "stateMutability": "view",
      "type": "function"
    },
    {
      "inputs": [
        {
          "internalType": "uint256",
          "name": "versionId",
          "type": "uint256"
        }
      ],
      "name": "getVersion",
      "outputs": [
        {
          "components": [
            {
              "internalType": "uint256",
              "name": "workId",
              "type": "uint256"
            },
            {
              "internalType": "uint256",
              "name": "versionId",
              "type": "uint256"
            },
            {
              "internalType": "string",
              "name": "title",
              "type": "string"
            },
            {
              "internalType": "bytes32",
              "name": "contentHash",
              "type": "bytes32"
            },
            {
              "internalType": "string",
              "name": "metadataURI",
              "type": "string"
            },
            {
              "internalType": "uint256",
              "name": "parentVersionId",
              "type": "uint256"
            },
            {
              "internalType": "enum ScriptVaultRegistry.Visibility",
              "name": "visibility",
              "type": "uint8"
            },
            {
              "internalType": "uint64",
              "name": "timestamp",
              "type": "uint64"
            }
          ],
          "internalType": "struct ScriptVaultRegistry.VersionInfo",
          "name": "",
          "type": "tuple"
        }
      ],
      "stateMutability": "view",
      "type": "function"
    },
    {
      "inputs": [
        {
          "internalType": "uint256",
          "name": "workId",
          "type": "uint256"
        }
      ],
      "name": "getWorkInfo",
      "outputs": [
        {
          "components": [
            {
              "internalType": "address",
              "name": "author",
              "type": "address"
            },
            {
              "internalType": "uint256",
              "name": "currentVersionId",
              "type": "uint256"
            },
            {
              "internalType": "uint64",
              "name": "createdAt",
              "type": "uint64"
            },
            {
              "internalType": "string",
              "name": "category",
              "type": "string"
            }
          ],
          "internalType": "struct ScriptVaultRegistry.WorkInfo",
          "name": "info",
          "type": "tuple"
        }
      ],
      "stateMutability": "view",
      "type": "function"
    },
    {
      "inputs": [
        {
          "internalType": "uint256",
          "name": "workId",
          "type": "uint256"
        }
      ],
      "name": "getWorkLicenses",
      "outputs": [
        {
          "internalType": "uint256[]",
          "name": "",
          "type": "uint256[]"
        }
      ],
      "stateMutability": "view",
      "type": "function"
    },
    {
      "inputs": [
        {
          "internalType": "uint256",
          "name": "workId",
          "type": "uint256"
        }
      ],
      "name": "getWorkVersions",
      "outputs": [
        {
          "internalType": "uint256[]",
          "name": "",
          "type": "uint256[]"
        }
      ],
      "stateMutability": "view",
      "type": "function"
    },
    {
      "inputs": [
        {
          "internalType": "uint256",
          "name": "workId",
          "type": "uint256"
        }
      ],
      "name": "getWorkVersionsCount",
      "outputs": [
        {
          "internalType": "uint256",
          "name": "",
          "type": "uint256"
        }
      ],
      "stateMutability": "view",
      "type": "function"
    },
    {
      "inputs": [
        {
          "internalType": "uint256",
          "name": "workId",
          "type": "uint256"
        },
        {
          "internalType": "address",
          "name": "grantee",
          "type": "address"
        },
        {
          "internalType": "uint64",
          "name": "expiry",
          "type": "uint64"
        },
        {
          "internalType": "externalEuint32",
          "name": "scopeExt",
          "type": "bytes32"
        },
        {
          "internalType": "bytes",
          "name": "inputProof",
          "type": "bytes"
        }
      ],
      "name": "grantAccess",
      "outputs": [],
      "stateMutability": "nonpayable",
      "type": "function"
    },
    {
      "inputs": [
        {
          "internalType": "uint256",
          "name": "workId",
          "type": "uint256"
        },
        {
          "internalType": "address",
          "name": "grantee",
          "type": "address"
        }
      ],
      "name": "isAccessGranted",
      "outputs": [
        {
          "internalType": "bool",
          "name": "",
          "type": "bool"
        }
      ],
      "stateMutability": "view",
      "type": "function"
    },
    {
      "inputs": [
        {
          "internalType": "uint256",
          "name": "workId",
          "type": "uint256"
        },
        {
          "internalType": "string",
          "name": "terms",
          "type": "string"
        },
        {
          "internalType": "uint256",
          "name": "priceWei",
          "type": "uint256"
        }
      ],
      "name": "issueLicense",
      "outputs": [
        {
          "internalType": "uint256",
          "name": "licenseId",
          "type": "uint256"
        }
      ],
      "stateMutability": "nonpayable",
      "type": "function"
    },
    {
      "inputs": [
        {
          "internalType": "uint256",
          "name": "",
          "type": "uint256"
        }
      ],
      "name": "licenses",
      "outputs": [
        {
          "internalType": "uint256",
          "name": "workId",
          "type": "uint256"
        },
        {
          "internalType": "address",
          "name": "licensee",
          "type": "address"
        },
        {
          "internalType": "string",
          "name": "terms",
          "type": "string"
        },
        {
          "internalType": "uint256",
          "name": "priceWei",
          "type": "uint256"
        },
        {
          "internalType": "bool",
          "name": "active",
          "type": "bool"
        }
      ],
      "stateMutability": "view",
      "type": "function"
    },
    {
      "inputs": [],
      "name": "nextLicenseId",
      "outputs": [
        {
          "internalType": "uint256",
          "name": "",
          "type": "uint256"
        }
      ],
      "stateMutability": "view",
      "type": "function"
    },
    {
      "inputs": [],
      "name": "nextVersionId",
      "outputs": [
        {
          "internalType": "uint256",
          "name": "",
          "type": "uint256"
        }
      ],
      "stateMutability": "view",
      "type": "function"
    },
    {
      "inputs": [],
      "name": "nextWorkId",
      "outputs": [
        {
          "internalType": "uint256",
          "name": "",
          "type": "uint256"
        }
      ],
      "stateMutability": "view",
      "type": "function"
    },
    {
      "inputs": [],
      "name": "protocolId",
      "outputs": [
        {
          "internalType": "uint256",
          "name": "",
          "type": "uint256"
        }
      ],
      "stateMutability": "pure",
      "type": "function"
    },
    {
      "inputs": [
        {
          "internalType": "uint256",
          "name": "workId",
          "type": "uint256"
        },
        {
          "internalType": "address",
          "name": "grantee",
          "type": "address"
        }
      ],
      "name": "revokeAccess",
      "outputs": [],
      "stateMutability": "nonpayable",
      "type": "function"
    },
    {
      "inputs": [
        {
          "internalType": "uint256",
          "name": "maybeWorkId",
          "type": "uint256"
        },
        {
          "internalType": "string",
          "name": "title",
          "type": "string"
        },
        {
          "internalType": "bytes32",
          "name": "contentHash",
          "type": "bytes32"
        },
        {
          "internalType": "string",
          "name": "metadataURI",
          "type": "string"
        },
        {
          "internalType": "uint256",
          "name": "parentVersionId",
          "type": "uint256"
        },
        {
          "internalType": "enum ScriptVaultRegistry.Visibility",
          "name": "visibility",
          "type": "uint8"
        },
        {
          "internalType": "string",
          "name": "category",
          "type": "string"
        }
      ],
      "name": "submitVersion",
      "outputs": [
        {
          "internalType": "uint256",
          "name": "workId",
          "type": "uint256"
        },
        {
          "internalType": "uint256",
          "name": "versionId",
          "type": "uint256"
        }
      ],
      "stateMutability": "nonpayable",
      "type": "function"
    },
    {
      "inputs": [
        {
          "internalType": "uint256",
          "name": "workId",
          "type": "uint256"
        },
        {
          "internalType": "address",
          "name": "grantee",
          "type": "address"
        },
        {
          "internalType": "externalEuint32",
          "name": "scopeExt",
          "type": "bytes32"
        },
        {
          "internalType": "bytes",
          "name": "inputProof",
          "type": "bytes"
        }
      ],
      "name": "upgradeScope",
      "outputs": [],
      "stateMutability": "nonpayable",
      "type": "function"
    },
    {
      "inputs": [
        {
          "internalType": "uint256",
          "name": "",
          "type": "uint256"
        }
      ],
      "name": "versions",
      "outputs": [
        {
          "internalType": "uint256",
          "name": "workId",
          "type": "uint256"
        },
        {
          "internalType": "uint256",
          "name": "versionId",
          "type": "uint256"
        },
        {
          "internalType": "string",
          "name": "title",
          "type": "string"
        },
        {
          "internalType": "bytes32",
          "name": "contentHash",
          "type": "bytes32"
        },
        {
          "internalType": "string",
          "name": "metadataURI",
          "type": "string"
        },
        {
          "internalType": "uint256",
          "name": "parentVersionId",
          "type": "uint256"
        },
        {
          "internalType": "enum ScriptVaultRegistry.Visibility",
          "name": "visibility",
          "type": "uint8"
        },
        {
          "internalType": "uint64",
          "name": "timestamp",
          "type": "uint64"
        }
      ],
      "stateMutability": "view",
      "type": "function"
    },
    {
      "inputs": [
        {
          "internalType": "uint256",
          "name": "",
          "type": "uint256"
        },
        {
          "internalType": "uint256",
          "name": "",
          "type": "uint256"
        }
      ],
      "name": "workLicenses",
      "outputs": [
        {
          "internalType": "uint256",
          "name": "",
          "type": "uint256"
        }
      ],
      "stateMutability": "view",
      "type": "function"
    },
    {
      "inputs": [
        {
          "internalType": "uint256",
          "name": "",
          "type": "uint256"
        },
        {
          "internalType": "uint256",
          "name": "",
          "type": "uint256"
        }
      ],
      "name": "workVersions",
      "outputs": [
        {
          "internalType": "uint256",
          "name": "",
          "type": "uint256"
        }
      ],
      "stateMutability": "view",
      "type": "function"
    },
    {
      "inputs": [
        {
          "internalType": "uint256",
          "name": "",
          "type": "uint256"
        }
      ],
      "name": "works",
      "outputs": [
        {
          "internalType": "address",
          "name": "author",
          "type": "address"
        },
        {
          "internalType": "uint256",
          "name": "currentVersionId",
          "type": "uint256"
        },
        {
          "internalType": "uint64",
          "name": "createdAt",
          "type": "uint64"
        },
        {
          "internalType": "string",
          "name": "category",
          "type": "string"
        }
      ],
      "stateMutability": "view",
      "type": "function"
    }
  ],
  "transactionHash": "0x92d084ce05778f1c67f4ac266097e8af6579a5607511cb9f786c9356e61a717f",
  "args": [],
  "numDeployments": 1,
  "solcInputHash": "a138715d37583c551e38d32e025132b4",
  "bytecode": "0x6080604052600160005560018055600160025534801561001e57600080fd5b5061019a6100be604080516080810182526000808252602082018190529181018290526060810191909152506040805160808101825273687820221192c5b662b25367f70076a37bc79b6c815273848b0066793bcc60346da1f49049357399b8d595602082015273a02cda4ca3a71d7c46997716f4283aa851c2881291810191909152731364cbbf2cdf5032c47d8226a6f6fbd2afcdacac606082015290565b80517f9e7b61f58c47dc699ac88507c4f5bb9f121c03808c5676a8078fe583e464970080546001600160a01b03199081166001600160a01b039384161790915560208301517f9e7b61f58c47dc699ac88507c4f5bb9f121c03808c5676a8078fe583e46497018054831691841691909117905560408301517f9e7b61f58c47dc699ac88507c4f5bb9f121c03808c5676a8078fe583e46497028054831691841691909117905560608301517f9e7b61f58c47dc699ac88507c4f5bb9f121c03808c5676a8078fe583e46497038054909216921691909117905550565b6128bd806101a96000396000f3fe6080604052600436106101665760003560e01c8063b2dd1212116100d1578063cbdd32821161008a578063dc91db9511610064578063dc91db9514610483578063e9b72def146104a3578063f8055351146104b9578063fb099871146104e957600080fd5b8063cbdd32821461042e578063d9a5ec1b1461044e578063da1f12ab1461046e57600080fd5b8063b2dd12121461033c578063b4de614314610369578063b88da75914610389578063c23aa904146103b6578063c66e1dd5146103eb578063cae1a69c1461041b57600080fd5b806387aee00e1161012357806387aee00e146102585780638c4ae9aa1461028c578063923d449b146102a25780639cd122e6146102cf5780639d0bfb4b146102ef578063a01275d41461030f57600080fd5b806326d49f041461016b578063337908451461018d578063492f471c146101c7578063502505e9146101eb57806350fe023e146102185780637a15e43e14610238575b600080fd5b34801561017757600080fd5b5061018b610186366004611f6c565b610553565b005b34801561019957600080fd5b506101ad6101a8366004611fd3565b610649565b6040516101be95949392919061203c565b60405180910390f35b3480156101d357600080fd5b506101dd60025481565b6040519081526020016101be565b3480156101f757600080fd5b5061020b610206366004611fd3565b61070e565b6040516101be919061207f565b34801561022457600080fd5b5061018b6102333660046120c2565b610770565b34801561024457600080fd5b506101dd610253366004612147565b61092f565b34801561026457600080fd5b50610278610273366004611fd3565b610959565b6040516101be98979695949392919061219d565b34801561029857600080fd5b506101dd60005481565b3480156102ae57600080fd5b506101dd6102bd366004611fd3565b60009081526005602052604090205490565b3480156102db57600080fd5b506101dd6102ea366004612208565b610ab7565b3480156102fb57600080fd5b506101dd61030a366004612208565b610ae8565b34801561031b57600080fd5b5061032f61032a366004611fd3565b610b04565b6040516101be919061222a565b34801561034857600080fd5b5061035c610357366004611fd3565b610c64565b6040516101be9190612274565b34801561037557600080fd5b5061020b610384366004611fd3565b610dde565b34801561039557600080fd5b506103a96103a4366004611fd3565b610e3e565b6040516101be91906122ce565b3480156103c257600080fd5b506103d66103d1366004612365565b611057565b604080519283526020830191909152016101be565b3480156103f757600080fd5b5061040b610406366004611fd3565b611373565b6040516101be949392919061243e565b61018b610429366004611fd3565b61143b565b34801561043a57600080fd5b506101dd610449366004612474565b61164d565b34801561045a57600080fd5b5061018b610469366004612147565b6117dd565b34801561047a57600080fd5b506127116101dd565b34801561048f57600080fd5b5061018b61049e366004611f6c565b6118b0565b3480156104af57600080fd5b506101dd60015481565b3480156104c557600080fd5b506104d96104d4366004612147565b611956565b60405190151581526020016101be565b3480156104f557600080fd5b50610534610504366004612147565b600660209081526000928352604080842090915290825290205460ff81169061010090046001600160401b031682565b6040805192151583526001600160401b039091166020830152016101be565b60008581526003602052604090205485906001600160a01b031633146105945760405162461bcd60e51b815260040161058b906124c6565b60405180910390fd5b60008681526007602090815260408083206001600160a01b03891684528252808320548151601f870184900484028101840190925285825292916105f491889188908890819084018382808284376000920191909152506119f092505050565b905060006106028383611a05565b60008a81526007602090815260408083206001600160a01b038d1684529091529020819055905061063281611a37565b5061063d8189611a47565b50505050505050505050565b60086020526000908152604090208054600182015460028301805492936001600160a01b039092169261067b906124ef565b80601f01602080910402602001604051908101604052809291908181526020018280546106a7906124ef565b80156106f45780601f106106c9576101008083540402835291602001916106f4565b820191906000526020600020905b8154815290600101906020018083116106d757829003601f168201915b50505050600383015460049093015491929160ff16905085565b60008181526009602090815260409182902080548351818402810184019094528084526060939283018282801561076457602002820191906000526020600020905b815481526020019060010190808311610750575b50505050509050919050565b60008681526003602052604090205486906001600160a01b031633146107a85760405162461bcd60e51b815260040161058b906124c6565b6001600160a01b0386166107ed5760405162461bcd60e51b815260206004820152600c60248201526b7a65726f206772616e74656560a01b604482015260640161058b565b604080518082018252600181526001600160401b03878116602080840191825260008c8152600682528581206001600160a01b038d168252825285812094518554935168ffffffffffffffffff1990941690151568ffffffffffffffff001916176101009390941692909202929092179092558251601f8601829004820281018201909352848352909161089e9187919087908790819084018382808284376000920191909152506119f092505050565b60008981526007602090815260408083206001600160a01b038c168452909152902081905590506108ce81611a37565b506108d98188611a47565b506040516001600160401b038716815233906001600160a01b038916908a907f41d8258a50e98b09a09b34edae6d14ebe30d9c5575fc4bd1d874acb76eea79009060200160405180910390a45050505050505050565b60008281526007602090815260408083206001600160a01b03851684529091529020545b92915050565b60046020526000908152604090208054600182015460028301805492939192610981906124ef565b80601f01602080910402602001604051908101604052809291908181526020018280546109ad906124ef565b80156109fa5780601f106109cf576101008083540402835291602001916109fa565b820191906000526020600020905b8154815290600101906020018083116109dd57829003601f168201915b505050505090806003015490806004018054610a15906124ef565b80601f0160208091040260200160405190810160405280929190818152602001828054610a41906124ef565b8015610a8e5780601f10610a6357610100808354040283529160200191610a8e565b820191906000526020600020905b815481529060010190602001808311610a7157829003601f168201915b50505050600583015460069093015491929160ff8116915061010090046001600160401b031688565b60096020528160005260406000208181548110610ad357600080fd5b90600052602060002001600091509150505481565b60056020528160005260406000208181548110610ad357600080fd5b60408051608081018252600080825260208201819052918101919091526060808201526000828152600360205260409020546001600160a01b0316610b7c5760405162461bcd60e51b815260206004820152600e60248201526d1ddbdc9ac81b9bdd08199bdd5b9960921b604482015260640161058b565b600082815260036020818152604092839020835160808101855281546001600160a01b0316815260018201549281019290925260028101546001600160401b0316938201939093529082018054919291606084019190610bdb906124ef565b80601f0160208091040260200160405190810160405280929190818152602001828054610c07906124ef565b8015610c545780601f10610c2957610100808354040283529160200191610c54565b820191906000526020600020905b815481529060010190602001808311610c3757829003601f168201915b5050505050815250509050919050565b610ca16040518060a001604052806000815260200160006001600160a01b0316815260200160608152602001600081526020016000151581525090565b600082118015610cb2575060025482105b610cf25760405162461bcd60e51b81526020600482015260116024820152701b1a58d95b9cd9481b9bdd08199bdd5b99607a1b604482015260640161058b565b600082815260086020908152604091829020825160a0810184528154815260018201546001600160a01b0316928101929092526002810180549293919291840191610d3c906124ef565b80601f0160208091040260200160405190810160405280929190818152602001828054610d68906124ef565b8015610db55780601f10610d8a57610100808354040283529160200191610db5565b820191906000526020600020905b815481529060010190602001808311610d9857829003601f168201915b50505091835250506003820154602082015260049091015460ff16151560409091015292915050565b60008181526005602090815260409182902080548351818402810184019094528084526060939283018282801561076457602002820191906000526020600020908154815260200190600101908083116107505750505050509050919050565b610e46611eaf565b6000828152600460205260408120600101549003610e9a5760405162461bcd60e51b81526020600482015260116024820152701d995c9cda5bdb881b9bdd08199bdd5b99607a1b604482015260640161058b565b60046000838152602001908152602001600020604051806101000160405290816000820154815260200160018201548152602001600282018054610edd906124ef565b80601f0160208091040260200160405190810160405280929190818152602001828054610f09906124ef565b8015610f565780601f10610f2b57610100808354040283529160200191610f56565b820191906000526020600020905b815481529060010190602001808311610f3957829003601f168201915b5050505050815260200160038201548152602001600482018054610f79906124ef565b80601f0160208091040260200160405190810160405280929190818152602001828054610fa5906124ef565b8015610ff25780601f10610fc757610100808354040283529160200191610ff2565b820191906000526020600020905b815481529060010190602001808311610fd557829003601f168201915b505050918352505060058201546020820152600682015460409091019060ff16600281111561102357611023612173565b600281111561103457611034612173565b81526006919091015461010090046001600160401b031660209091015292915050565b600080886110945760405162461bcd60e51b815260206004820152600a6024820152690cadae0e8f240d0c2e6d60b31b604482015260640161058b565b8b6000036110e3576110dc3385858080601f016020809104026020016040519081016040528093929190818152602001838380828437600092019190915250611a5a92505050565b915061113c565b60008c8152600360205260409020546001600160a01b03166111385760405162461bcd60e51b815260206004820152600e60248201526d1ddbdc9ac81b9bdd08199bdd5b9960921b604482015260640161058b565b8b91505b6001805490600061114c83612529565b9190505590506040518061010001604052808381526020018281526020018c8c8080601f01602080910402602001604051908101604052809392919081815260200183838082843760009201919091525050509082525060208082018c905260408051601f8c0183900483028101830182528b8152920191908b908b9081908401838280828437600092019190915250505090825250602081018890526040018660028111156111fe576111fe612173565b81526001600160401b03421660209182015260008381526004825260409081902083518155918301516001830155820151600282019061123e90826125b5565b50606082015160038201556080820151600482019061125d90826125b5565b5060a0820151600582015560c082015160068201805460ff1916600183600281111561128b5761128b612173565b021790555060e08201518160060160016101000a8154816001600160401b0302191690836001600160401b03160217905550905050600560008381526020019081526020016000208190806001815401808255809150506001900390600052602060002001600090919091909150558060036000848152602001908152602001600020600101819055508082336001600160a01b03167fe548d0fa23ba472bbc055e1893c76a3560d8563de51b4f913b220926225a5ee28e8e8e8e8e8d4260405161135c979695949392919061269c565b60405180910390a49a509a98505050505050505050565b600360208190526000918252604090912080546001820154600283015493830180546001600160a01b039093169491936001600160401b03909216926113b8906124ef565b80601f01602080910402602001604051908101604052809291908181526020018280546113e4906124ef565b80156114315780601f1061140657610100808354040283529160200191611431565b820191906000526020600020905b81548152906001019060200180831161141457829003601f168201915b5050505050905084565b6000818152600860205260409020600481015460ff166114905760405162461bcd60e51b815260206004820152601060248201526f6c6963656e736520696e61637469766560801b604482015260640161058b565b348160030154146114d55760405162461bcd60e51b815260206004820152600f60248201526e696e636f72726563742076616c756560881b604482015260640161058b565b60018101546001600160a01b0316156115245760405162461bcd60e51b8152602060048201526011602482015270185b1c9958591e481c1d5c98da185cd959607a1b604482015260640161058b565b6001810180546001600160a01b0319163317905560048101805460ff19169055805460009081526003602090815260408083205481518481529283019091526001600160a01b031691908290349060405161157f91906126f4565b60006040518083038185875af1925050503d80600081146115bc576040519150601f19603f3d011682016040523d82523d6000602084013e6115c1565b606091505b50509050806116045760405162461bcd60e51b815260206004820152600f60248201526e1d1c985b9cd9995c8819985a5b1959608a1b604482015260640161058b565b8254604051859133917f5d4d63e03296bb5ddb80f465e5a4b492e5626b112a467b0b464ea8af3c040cfc9061163f9060028901903490612710565b60405180910390a450505050565b60008481526003602052604081205485906001600160a01b031633146116855760405162461bcd60e51b815260040161058b906124c6565b6002805490600061169583612529565b9190505591506040518060a0016040528087815260200160006001600160a01b0316815260200186868080601f01602080910402602001604051908101604052809392919081815260200183838082843760009201829052509385525050506020808301879052600160409384018190528683526008825291839020845181559084015191810180546001600160a01b0319166001600160a01b039093169290921790915590820151600282019061174d90826125b5565b50606082015160038201556080909101516004909101805460ff191691151591909117905560008681526009602090815260408083208054600181018255908452919092200183905551829087907fe83689eecc36b101e22a27660d8685ada20e36eea9d8408ff5f4f0e85ef022cf906117cc908990899089906127a4565b60405180910390a350949350505050565b60008281526003602052604090205482906001600160a01b031633146118155760405162461bcd60e51b815260040161058b906124c6565b60408051808201825260008082526020808301828152878352600682528483206001600160a01b038816808552925284832093518454915168ffffffffffffffffff1990921690151568ffffffffffffffff001916176101006001600160401b0390921691909102179092559151339286917f260547d4038414ef72f081dcde91825693dff9bc433178f3e92ad36e0cd227509190a4505050565b60008581526003602052604090205485906001600160a01b031633146118e85760405162461bcd60e51b815260040161058b906124c6565b60008681526007602090815260408083206001600160a01b03891684528252808320548151601f8701849004840281018401909252858252929161194891889188908890819084018382808284376000920191909152506119f092505050565b905060006106028383611b0c565b60008281526006602090815260408083206001600160a01b0385168452825280832081518083019092525460ff811615158083526101009091046001600160401b031692820192909252906119af576000915050610953565b60208101516001600160401b0316158015906119d7575080602001516001600160401b031642115b156119e6576000915050610953565b5060019392505050565b60006119fe83836004611b3e565b9392505050565b600082611a1957611a166000611c43565b92505b81611a2b57611a286000611c43565b91505b6119fe83836000611c56565b6000611a438230611d1a565b5090565b6000611a538383611d1a565b5090919050565b600080548180611a6983612529565b90915550604080516080810182526001600160a01b03868116825260006020808401828152426001600160401b03908116868801908152606087018b815289865260039485905297909420865181546001600160a01b031916961695909517855590516001850155915160028401805467ffffffffffffffff19169190931617909155925193945090929091820190611b0290826125b5565b5090505092915050565b600082611b2057611b1d6000611c43565b92505b81611b3257611b2f6000611c43565b91505b6119fe83836000611d97565b6000805160206128488339815191525460405163196d0b9b60e01b8152600091600080516020612868833981519152916001600160a01b039091169063196d0b9b90611b949088903390899089906004016127d8565b6020604051808303816000875af1158015611bb3573d6000803e3d6000fd5b505050506040513d601f19601f82011682018060405250810190611bd7919061281a565b8154604051630f8e573b60e21b8152600481018390523360248201529193506001600160a01b031690633e395cec90604401600060405180830381600087803b158015611c2357600080fd5b505af1158015611c37573d6000803e3d6000fd5b50505050509392505050565b60006109538263ffffffff166004611e12565b6000808215611c6a5750600160f81b611c6e565b5060005b600080516020612848833981519152546040516304559f7160e01b815260048101879052602481018690526001600160f81b031983166044820152600080516020612868833981519152916001600160a01b0316906304559f71906064015b6020604051808303816000875af1158015611cec573d6000803e3d6000fd5b505050506040513d601f19601f82011682018060405250810190611d10919061281a565b9695505050505050565b60006000805160206128688339815191528054604051635ca4b5b160e11b8152600481018690526001600160a01b03858116602483015292935091169063b9496b6290604401600060405180830381600087803b158015611d7a57600080fd5b505af1158015611d8e573d6000803e3d6000fd5b50505050505050565b6000808215611dab5750600160f81b611daf565b5060005b60008051602061284883398151915254604051630d8c635960e21b815260048101879052602481018690526001600160f81b031983166044820152600080516020612868833981519152916001600160a01b0316906336318d6490606401611ccd565b60008051602061284883398151915254604051639cd07acb60e01b8152600091600080516020612868833981519152916001600160a01b0390911690639cd07acb90611e649087908790600401612833565b6020604051808303816000875af1158015611e83573d6000803e3d6000fd5b505050506040513d601f19601f82011682018060405250810190611ea7919061281a565b949350505050565b60405180610100016040528060008152602001600081526020016060815260200160008019168152602001606081526020016000815260200160006002811115611efb57611efb612173565b8152600060209091015290565b80356001600160a01b0381168114611f1f57600080fd5b919050565b60008083601f840112611f3657600080fd5b5081356001600160401b03811115611f4d57600080fd5b602083019150836020828501011115611f6557600080fd5b9250929050565b600080600080600060808688031215611f8457600080fd5b85359450611f9460208701611f08565b93506040860135925060608601356001600160401b03811115611fb657600080fd5b611fc288828901611f24565b969995985093965092949392505050565b600060208284031215611fe557600080fd5b5035919050565b60005b83811015612007578181015183820152602001611fef565b50506000910152565b60008151808452612028816020860160208601611fec565b601f01601f19169290920160200192915050565b8581526001600160a01b038516602082015260a06040820181905260009061206690830186612010565b6060830194909452509015156080909101529392505050565b602080825282518282018190526000918401906040840190835b818110156120b7578351835260209384019390920191600101612099565b509095945050505050565b60008060008060008060a087890312156120db57600080fd5b863595506120eb60208801611f08565b945060408701356001600160401b038116811461210757600080fd5b93506060870135925060808701356001600160401b0381111561212957600080fd5b61213589828a01611f24565b979a9699509497509295939492505050565b6000806040838503121561215a57600080fd5b8235915061216a60208401611f08565b90509250929050565b634e487b7160e01b600052602160045260246000fd5b6003811061219957612199612173565b9052565b888152876020820152610100604082015260006121be610100830189612010565b87606084015282810360808401526121d68188612010565b9150508460a08301526121ec60c0830185612189565b6001600160401b03831660e08301529998505050505050505050565b6000806040838503121561221b57600080fd5b50508035926020909101359150565b6020815260018060a01b038251166020820152602082015160408201526001600160401b03604083015116606082015260006060830151608080840152611ea760a0840182612010565b602081528151602082015260018060a01b0360208301511660408201526000604083015160a060608401526122ac60c0840182612010565b9050606084015160808401526080840151151560a08401528091505092915050565b602081528151602082015260208201516040820152600060408301516101006060840152612300610120840182612010565b9050606084015160808401526080840151601f198483030160a08501526123278282612010565b91505060a084015160c084015260c084015161234660e0850182612189565b506001600160401b0360e0850151166101008401528091505092915050565b60008060008060008060008060008060e08b8d03121561238457600080fd5b8a35995060208b01356001600160401b038111156123a157600080fd5b6123ad8d828e01611f24565b909a5098505060408b0135965060608b01356001600160401b038111156123d357600080fd5b6123df8d828e01611f24565b90975095505060808b0135935060a08b0135600381106123fe57600080fd5b925060c08b01356001600160401b0381111561241957600080fd5b6124258d828e01611f24565b915080935050809150509295989b9194979a5092959850565b60018060a01b03851681528360208201526001600160401b0383166040820152608060608201526000611d106080830184612010565b6000806000806060858703121561248a57600080fd5b8435935060208501356001600160401b038111156124a757600080fd5b6124b387828801611f24565b9598909750949560400135949350505050565b6020808252600f908201526e2737ba103bb7b9359030baba3437b960891b604082015260600190565b600181811c9082168061250357607f821691505b60208210810361252357634e487b7160e01b600052602260045260246000fd5b50919050565b60006001820161254957634e487b7160e01b600052601160045260246000fd5b5060010190565b634e487b7160e01b600052604160045260246000fd5b601f8211156125b057806000526020600020601f840160051c8101602085101561258d5750805b601f840160051c820191505b818110156125ad5760008155600101612599565b50505b505050565b81516001600160401b038111156125ce576125ce612550565b6125e2816125dc84546124ef565b84612566565b6020601f82116001811461261657600083156125fe5750848201515b600019600385901b1c1916600184901b1784556125ad565b600084815260208120601f198516915b828110156126465787850151825560209485019460019092019101612626565b50848210156126645786840151600019600387901b60f8161c191681555b50505050600190811b01905550565b81835281816020850137506000828201602090810191909152601f909101601f19169091010190565b60a0815260006126b060a08301898b612673565b87602084015282810360408401526126c9818789612673565b9150506126d96060830185612189565b6001600160401b038316608083015298975050505050505050565b60008251612706818460208701611fec565b9190910192915050565b604081526000808454612722816124ef565b8060408601526001821660008114612741576001811461275d57612791565b60ff1983166060870152606082151560051b8701019350612791565b87600052602060002060005b8381101561278857815488820160600152600190910190602001612769565b87016060019450505b5050506020929092019290925292915050565b6040815260006127b8604083018587612673565b9050826020830152949350505050565b6054811061219957612199612173565b8481526001600160a01b038416602082015260806040820181905260009061280290830185612010565b905061281160608301846127c8565b95945050505050565b60006020828403121561282c57600080fd5b5051919050565b828152604081016119fe60208301846127c856fe9e7b61f58c47dc699ac88507c4f5bb9f121c03808c5676a8078fe583e46497019e7b61f58c47dc699ac88507c4f5bb9f121c03808c5676a8078fe583e4649700a2646970667358221220d3324f6de04e3799f40d5248e038953b52698df5c9acb80823192113549b90c664736f6c634300081b0033",
  "devdoc": {
    "kind": "dev",
    "methods": {},
    "version": 1
  },
  "userdoc": {
    "kind": "user",
    "methods": {
      "downgradeScope(uint256,address,bytes32,bytes)": {
        "notice": " scope min"
      },
      "upgradeScope(uint256,address,bytes32,bytes)": {
        "notice": " scope max"
      }
    },
    "notice": "ScriptVaultRegistry ------------------- - /URI -  +  -  FHE  scope - /",
    "version": 1
  },
  "storageLayout": {
    "storage": [
      {
        "astId": 39153,
        "contract": "contracts/ScriptVaultRegistry.sol:ScriptVaultRegistry",
        "label": "nextWorkId",
        "offset": 0,
        "slot": "0",
        "type": "t_uint256"
      },
      {
        "astId": 39156,
        "contract": "contracts/ScriptVaultRegistry.sol:ScriptVaultRegistry",
        "label": "nextVersionId",
        "offset": 0,
        "slot": "1",
        "type": "t_uint256"
      },
      {
        "astId": 39159,
        "contract": "contracts/ScriptVaultRegistry.sol:ScriptVaultRegistry",
        "label": "nextLicenseId",
        "offset": 0,
        "slot": "2",
        "type": "t_uint256"
      },
      {
        "astId": 39164,
        "contract": "contracts/ScriptVaultRegistry.sol:ScriptVaultRegistry",
        "label": "works",
        "offset": 0,
        "slot": "3",
        "type": "t_mapping(t_uint256,t_struct(WorkInfo)39049_storage)"
      },
      {
        "astId": 39169,
        "contract": "contracts/ScriptVaultRegistry.sol:ScriptVaultRegistry",
        "label": "versions",
        "offset": 0,
        "slot": "4",
        "type": "t_mapping(t_uint256,t_struct(VersionInfo)39067_storage)"
      },
      {
        "astId": 39174,
        "contract": "contracts/ScriptVaultRegistry.sol:ScriptVaultRegistry",
        "label": "workVersions",
        "offset": 0,
        "slot": "5",
        "type": "t_mapping(t_uint256,t_array(t_uint256)dyn_storage)"
      },
      {
        "astId": 39181,
        "contract": "contracts/ScriptVaultRegistry.sol:ScriptVaultRegistry",
        "label": "accessGrants",
        "offset": 0,
        "slot": "6",
        "type": "t_mapping(t_uint256,t_mapping(t_address,t_struct(AccessGrant)39072_storage))"
      },
      {
        "astId": 39188,
        "contract": "contracts/ScriptVaultRegistry.sol:ScriptVaultRegistry",
        "label": "_encryptedScopes",
        "offset": 0,
        "slot": "7",
        "type": "t_mapping(t_uint256,t_mapping(t_address,t_userDefinedValueType(euint32)39923))"
      },
      {
        "astId": 39193,
        "contract": "contracts/ScriptVaultRegistry.sol:ScriptVaultRegistry",
        "label": "licenses",
        "offset": 0,
        "slot": "8",
        "type": "t_mapping(t_uint256,t_struct(LicenseTerms)39083_storage)"
      },
      {
        "astId": 39198,
        "contract": "contracts/ScriptVaultRegistry.sol:ScriptVaultRegistry",
        "label": "workLicenses",
        "offset": 0,
        "slot": "9",
        "type": "t_mapping(t_uint256,t_array(t_uint256)dyn_storage)"
      }
    ],
    "types": {
      "t_address": {
        "encoding": "inplace",
        "label": "address",
        "numberOfBytes": "20"
      },
      "t_array(t_uint256)dyn_storage": {
        "base": "t_uint256",
        "encoding": "dynamic_array",
        "label": "uint256[]",
        "numberOfBytes": "32"
      },
      "t_bool": {
        "encoding": "inplace",
        "label": "bool",
        "numberOfBytes": "1"
      },
      "t_bytes32": {
        "encoding": "inplace",
        "label": "bytes32",
        "numberOfBytes": "32"
      },
      "t_enum(Visibility)39040": {
        "encoding": "inplace",
        "label": "enum ScriptVaultRegistry.Visibility",
        "numberOfBytes": "1"
      },
      "t_mapping(t_address,t_struct(AccessGrant)39072_storage)": {
        "encoding": "mapping",
        "key": "t_address",
        "label": "mapping(address => struct ScriptVaultRegistry.AccessGrant)",
        "numberOfBytes": "32",
        "value": "t_struct(AccessGrant)39072_storage"
      },
      "t_mapping(t_address,t_userDefinedValueType(euint32)39923)": {
        "encoding": "mapping",
        "key": "t_address",
        "label": "mapping(address => euint32)",
        "numberOfBytes": "32",
        "value": "t_userDefinedValueType(euint32)39923"
      },
      "t_mapping(t_uint256,t_array(t_uint256)dyn_storage)": {
        "encoding": "mapping",
        "key": "t_uint256",
        "label": "mapping(uint256 => uint256[])",
        "numberOfBytes": "32",
        "value": "t_array(t_uint256)dyn_storage"
      },
      "t_mapping(t_uint256,t_mapping(t_address,t_struct(AccessGrant)39072_storage))": {
        "encoding": "mapping",
        "key": "t_uint256",
        "label": "mapping(uint256 => mapping(address => struct ScriptVaultRegistry.AccessGrant))",
        "numberOfBytes": "32",
        "value": "t_mapping(t_address,t_struct(AccessGrant)39072_storage)"
      },
      "t_mapping(t_uint256,t_mapping(t_address,t_userDefinedValueType(euint32)39923))": {
        "encoding": "mapping",
        "key": "t_uint256",
        "label": "mapping(uint256 => mapping(address => euint32))",
        "numberOfBytes": "32",
        "value": "t_mapping(t_address,t_userDefinedValueType(euint32)39923)"
      },
      "t_mapping(t_uint256,t_struct(LicenseTerms)39083_storage)": {
        "encoding": "mapping",
        "key": "t_uint256",
        "label": "mapping(uint256 => struct ScriptVaultRegistry.LicenseTerms)",
        "numberOfBytes": "32",
        "value": "t_struct(LicenseTerms)39083_storage"
      },
      "t_mapping(t_uint256,t_struct(VersionInfo)39067_storage)": {
        "encoding": "mapping",
        "key": "t_uint256",
        "label": "mapping(uint256 => struct ScriptVaultRegistry.VersionInfo)",
        "numberOfBytes": "32",
        "value": "t_struct(VersionInfo)39067_storage"
      },
      "t_mapping(t_uint256,t_struct(WorkInfo)39049_storage)": {
        "encoding": "mapping",
        "key": "t_uint256",
        "label": "mapping(uint256 => struct ScriptVaultRegistry.WorkInfo)",
        "numberOfBytes": "32",
        "value": "t_struct(WorkInfo)39049_storage"
      },
      "t_string_storage": {
        "encoding": "bytes",
        "label": "string",
        "numberOfBytes": "32"
      },
      "t_struct(AccessGrant)39072_storage": {
        "encoding": "inplace",
        "label": "struct ScriptVaultRegistry.AccessGrant",
        "members": [
          {
            "astId": 39069,
            "contract": "contracts/ScriptVaultRegistry.sol:ScriptVaultRegistry",
            "label": "granted",
            "offset": 0,
            "slot": "0",
            "type": "t_bool"
          },
          {
            "astId": 39071,
            "contract": "contracts/ScriptVaultRegistry.sol:ScriptVaultRegistry",
            "label": "expiry",
            "offset": 1,
            "slot": "0",
            "type": "t_uint64"
          }
        ],
        "numberOfBytes": "32"
      },
      "t_struct(LicenseTerms)39083_storage": {
        "encoding": "inplace",
        "label": "struct ScriptVaultRegistry.LicenseTerms",
        "members": [
          {
            "astId": 39074,
            "contract": "contracts/ScriptVaultRegistry.sol:ScriptVaultRegistry",
            "label": "workId",
            "offset": 0,
            "slot": "0",
            "type": "t_uint256"
          },
          {
            "astId": 39076,
            "contract": "contracts/ScriptVaultRegistry.sol:ScriptVaultRegistry",
            "label": "licensee",
            "offset": 0,
            "slot": "1",
            "type": "t_address"
          },
          {
            "astId": 39078,
            "contract": "contracts/ScriptVaultRegistry.sol:ScriptVaultRegistry",
            "label": "terms",
            "offset": 0,
            "slot": "2",
            "type": "t_string_storage"
          },
          {
            "astId": 39080,
            "contract": "contracts/ScriptVaultRegistry.sol:ScriptVaultRegistry",
            "label": "priceWei",
            "offset": 0,
            "slot": "3",
            "type": "t_uint256"
          },
          {
            "astId": 39082,
            "contract": "contracts/ScriptVaultRegistry.sol:ScriptVaultRegistry",
            "label": "active",
            "offset": 0,
            "slot": "4",
            "type": "t_bool"
          }
        ],
        "numberOfBytes": "160"
      },
      "t_struct(VersionInfo)39067_storage": {
        "encoding": "inplace",
        "label": "struct ScriptVaultRegistry.VersionInfo",
        "members": [
          {
            "astId": 39051,
            "contract": "contracts/ScriptVaultRegistry.sol:ScriptVaultRegistry",
            "label": "workId",
            "offset": 0,
            "slot": "0",
            "type": "t_uint256"
          },
          {
            "astId": 39053,
            "contract": "contracts/ScriptVaultRegistry.sol:ScriptVaultRegistry",
            "label": "versionId",
            "offset": 0,
            "slot": "1",
            "type": "t_uint256"
          },
          {
            "astId": 39055,
            "contract": "contracts/ScriptVaultRegistry.sol:ScriptVaultRegistry",
            "label": "title",
            "offset": 0,
            "slot": "2",
            "type": "t_string_storage"
          },
          {
            "astId": 39057,
            "contract": "contracts/ScriptVaultRegistry.sol:ScriptVaultRegistry",
            "label": "contentHash",
            "offset": 0,
            "slot": "3",
            "type": "t_bytes32"
          },
          {
            "astId": 39059,
            "contract": "contracts/ScriptVaultRegistry.sol:ScriptVaultRegistry",
            "label": "metadataURI",
            "offset": 0,
            "slot": "4",
            "type": "t_string_storage"
          },
          {
            "astId": 39061,
            "contract": "contracts/ScriptVaultRegistry.sol:ScriptVaultRegistry",
            "label": "parentVersionId",
            "offset": 0,
            "slot": "5",
            "type": "t_uint256"
          },
          {
            "astId": 39064,
            "contract": "contracts/ScriptVaultRegistry.sol:ScriptVaultRegistry",
            "label": "visibility",
            "offset": 0,
            "slot": "6",
            "type": "t_enum(Visibility)39040"
          },
          {
            "astId": 39066,
            "contract": "contracts/ScriptVaultRegistry.sol:ScriptVaultRegistry",
            "label": "timestamp",
            "offset": 1,
            "slot": "6",
            "type": "t_uint64"
          }
        ],
        "numberOfBytes": "224"
      },
      "t_struct(WorkInfo)39049_storage": {
        "encoding": "inplace",
        "label": "struct ScriptVaultRegistry.WorkInfo",
        "members": [
          {
            "astId": 39042,
            "contract": "contracts/ScriptVaultRegistry.sol:ScriptVaultRegistry",
            "label": "author",
            "offset": 0,
            "slot": "0",
            "type": "t_address"
          },
          {
            "astId": 39044,
            "contract": "contracts/ScriptVaultRegistry.sol:ScriptVaultRegistry",
            "label": "currentVersionId",
            "offset": 0,
            "slot": "1",
            "type": "t_uint256"
          },
          {
            "astId": 39046,
            "contract": "contracts/ScriptVaultRegistry.sol:ScriptVaultRegistry",
            "label": "createdAt",
            "offset": 0,
            "slot": "2",
            "type": "t_uint64"
          },
          {
            "astId": 39048,
            "contract": "contracts/ScriptVaultRegistry.sol:ScriptVaultRegistry",
            "label": "category",
            "offset": 0,
            "slot": "3",
            "type": "t_string_storage"
          }
        ],
        "numberOfBytes": "128"
      },
      "t_uint256": {
        "encoding": "inplace",
        "label": "uint256",
        "numberOfBytes": "32"
      },
      "t_uint64": {
        "encoding": "inplace",
        "label": "uint64",
        "numberOfBytes": "8"
      },
      "t_userDefinedValueType(euint32)39923": {
        "encoding": "inplace",
        "label": "euint32",
        "numberOfBytes": "32"
      }
    }
  }
}